:020000040000FA
:0400000080313628ED
:1000060008007E1480310B1F34282100111E15288C
:100016002000111E152822003A088A0039080A0015
:10002600803134282100911E22282000911E22288A
:10003600220038088A0037080A0080313428210057
:10004600911D2C282000911D2C28853138258031C2
:1000560034282100911C34282000911C34288F312B
:10006600F4277E10090080313828D730840081308B
:10007600850070308600273087000030FF00803012
:100086008731DE2780319F3084008F3085005F30D6
:100096008600003087000030FF0004308731DE27FD
:1000A6008031B930840086308500CB308600003040
:1000B60087000030FF0024308731DE278031203072
:1000C6008400003085002230FE000030FF008731BA
:1000D600EA278031A0308400003085002B30FE00F6
:1000E6000030FF008731EA272200BB01BC01BD01B9
:1000F600BE01BF01C001C101C2017E1020008731CF
:10010600F62F2000C7005C08CA005B08C900C801BA
:100116005E0848020318A028490884004A0885009A
:10012600000847060319A0280630C9070030CA3D53
:100136000130C2004208C8078B28490884004A08D3
:10014600850000088331C02380312000C2004208A8
:100156002100BC0020004A08C3004908C200013043
:100166004207840043080318430A85001200031D52
:1001760012294A08C3004908C20002304207840017
:1001860043080318430A850012000319F9284A0890
:10019600C3004908C200023042078400430803181E
:1001A600430A85000008C40044082100C600BD308B
:1001B600F0000030F1007A082000C2004208F20088
:1001C6004A08C4004908C3000230430784004408B3
:1001D6000318440A85000008C500C6014508F30057
:1001E6004608F40086319226803102292100C60194
:1001F600C60AAA302000C20042082100BD00BD3058
:100206002000C2004208F000210046088531F12591
:1002160080312000C30043082100C5003D294A085B
:10022600C3004908C200023042078400430803188D
:10023600430A85000008C40044082100B1002000DC
:10024600490884004A0885000008C20042082100C7
:10025600B00020004A08C3004908C2000330420724
:10026600840043080318430A85000008C4004408B4
:100276002100BB002000AF01AF0A08002000D60015
:100286005608D2005208D700500851040319080036
:100296004E08D200570886008701520881004E0892
:1002A600D20050085707D3005308FF3E8600870147
:1002B6005208810000305102033003195002031C1A
:1002C60008004E08D200570A8600870152088100AE
:1002D6004E08D2005708023E860087015208810068
:1002E6004E08D20050085707D3005308FE3E86003A
:1002F6008701520881004E08D20050085707D300E4
:100306005308FD3E860087015208810000305102E5
:10031600073003195002031C08004E08D200570884
:10032600033E86008701520881004E08D20050081D
:100336005707D3005308FC3E860087015208810008
:1003460000305102093003195002031C08005709F6
:10035600D2005809D300D20A0319D30A0330520532
:10036600D40000305305D5005408D2005208D707F0
:100376005408D0025508D13BFC30D005FF30D105DA
:1003860050085104031908004E08D2005708860089
:100396008701520881000130D0020030D13B013084
:1003A600D2005208D707C32900340134023403347B
:1003B6000434053406340734083409340A340B345B
:1003C6000C340D340E340F3410341134123413340B
:1003D6001434153416341734183419341A341B34BB
:1003E6001C341D341E341F3420342134223423346B
:1003F6002434253426342734283429342A342B341B
:100406002C342D342E342F343034313432343334CA
:100416003434353436343734383439343A343B347A
:100426003C343D343E343F3440344134423443342A
:100436004434453446344734483449344A344B34DA
:100446004C344D344E344F3450345134523453348A
:100456005434553456345734583459345A345B343A
:100466005C345D345E345F346034613462346334EA
:100476006434653466346734683469346A346B349A
:100486006C346D346E346F3470347134723473344A
:100496007434753476347734783479347A347B34FA
:1004A6007C347D347E347F34B72A20002F03031D2D
:1004B6000800AF018F31A32782318531692582314A
:1004C60000302000CE00CF000B30D0000030D1002D
:1004D600BC30813141212000AA01AA0A080021006E
:1004E600111A080023009E1C080021003108031978
:1004F600892A3B088731C12782318F31A8270230EC
:100506002200AD002D082000AA0008002000AA0144
:10051600080020002D08031D9C2AAA010030CE00E9
:10052600CF000C30D0000030D100B03081314121F5
:1005360008008F3182278231003A0319080085317D
:1005460098258231013A031D08008F31A327033015
:100556002200AD002D082000AA00080036088A00F7
:1005660035080A008231892A20002A082200AD00B7
:10057600AE012E08003A0319C12ACF2A2D08003AE7
:100586000319582A013A0319722A033A03198C2AC5
:10059600013A0319B12ACF2A080000340034043482
:1005A60000341434EB342834003404340034143466
:1005B600E73408340034043400341434E334143497
:1005C6000034023400343C344034183400340434EB
:1005D60000341434DF342234013402340A3414343F
:1005E6003E340234013402340A3414343C342A349E
:1005F600013402340A3414343A340A3401340234ED
:100606000A34143438341934013402340A343C348C
:1006160036341A34013401340A34143434341B3475
:10062600013401340A3414343234213400340434AD
:1006360000341434DB34013400340434003414340C
:10064600D73429340034043400341434D334093410
:100656000034043400341434CF34343400340234D7
:1006660000343C3461343534013402340A341434F1
:1006760030341534013404340A346434C734203435
:100686000034043400341434CB342000AB01280881
:10069600FB00FC017B08F0007C08F1000630F2004C
:1006A6000030F30087313D278331700820005B0757
:1006B600CB0071085C3DCC004C08FC004B08FB00ED
:1006C60004307B0784007C0803187C0A850012002E
:1006D6000319842B4C08FC004B08FB0005307B07F4
:1006E60084007C0803187C0A85000008FD007D084C
:1006F600FA004B0884004C088500000880318420ED
:1007060083310130FB007B082000A8075E08280221
:100716000318A8012808FB00FC017B08F0007C08F0
:10072600F1000630F2000030F30087313D278331B7
:10073600700820005B07CB0071085C3DCC004C08BC
:10074600FC004B08FB0004307B0784007C08031880
:100756007C0A850012000319842B4C08FC004B0808
:10076600FB0004307B0784007C0803187C0A8500A4
:100776000008FD007D08AE000800F1007108F000D9
:100786007008F200F21CC92B0130CA2B0030F000B1
:10079600721CCF2B0130D02B003070060319D52BDD
:1007A6007217D62B7213721DDA2B0130DB2B003039
:1007B600F000721FE02B0130E12B003070060319A8
:1007C600E62B7217E72B7213721EEB2B0130EC2B04
:1007D6000030F000721FF12B0130F22B0030700652
:1007E6000319F72B7217F82B7213F21DFC2B01302D
:1007F600FD2B0030F000F21C022C0130032C0030DF
:1008060070060319082CF217092CF213721E0D2C10
:1008160001300E2C0030F000F21F132C0130142C86
:10082600003070060319192CF2171A2CF213F21E57
:100836001E2C01301F2C0030F000F21F242C01303A
:10084600252C0030700603192A2CF2172B2CF213D4
:100856000310F21F0314031C322CF217332CF2136D
:1008660072080800243086311B2684312200A2003B
:100876002208AC002C08A200A3012308003A0319A1
:10088600452C832C2208003A0319832C013A0319BC
:10089600832C033A0319832C0A3A0319832C013A51
:1008A6000319832C033A0319832C1E3A0319832C4C
:1008B600013A0319832C0D3A0319832C013A0319C3
:1008C600832C033A0319832C013A0319832C3B3AF0
:1008D6000319832C013A0319832C033A0319832C39
:1008E6000A3A0319832C013A0319832C033A031994
:1008F600832C1E3A0319832C013A0319832C832C6B
:1009060008002100911202302000CE000530CF00F1
:100916008F31E22784312100111220302000CE00D1
:100926000730CF008F31EB278431083023009F003A
:1009360090309D0024309E007F309B0001309C004B
:1009460003302000CE000030CF008F31D027843115
:100956008B302000CE000F30CF008F31D927843165
:100966007F302000CE000F30CF008F31C727200008
:10097600A201A701A6010830D0005008DD00A5019C
:10098600A401A30121009116080022008C01013068
:100996008D0010308E00083021009000FF308C0052
:1009A600FE308D00AF308E00743023008E003F3055
:1009B6008D003F308C00240090018D018C010830A1
:1009C6008E002100951325008C018D018E01FF30CC
:1009D60026008C00FF308D00FF308E0010303D0069
:1009E600A00017303C00A4001130A10011303D00DA
:1009F600A1001430A60010303C00A0000800200022
:100A06002508A03E86008701810123001D1D172DA4
:100A160020002508A03E86008701811422003408A4
:100A26008A0033080A00853123009D1C262D2000EC
:100A36002508A03E860087010115220032088A009B
:100A460031080A00853120002508A03E860087016E
:100A560001080319352D220030088A002F080A00E4
:100A66008531080087317227080020009111240083
:100A76001108F0007008F100141D452D941E662D16
:100A86001608662D941E662D710A031D502DFF3023
:100A9600F00070082000C000662D81307102031C32
:100AA6005D2DE430710203185D2D7108F0007008A9
:100AB6002000652DFE30F00070082000C000803058
:100AC600F0007008C1002400151608008F31852734
:100AD600853100308631DD26853155308631DD267B
:100AE600853121003C088631DD268531210031081B
:100AF600031D08002000D1012100460820005102F4
:100B06000318932D5108BD3E8600870101088631E2
:100B1600DD26853101302000D0005008D1077F2D19
:100B2600210045088631DD26080021003108200015
:100B360029020318AF2D86316B2685312000D4009B
:100B46002908B23E86008701540881000130D4008E
:100B56005408A9070000C42DA901B230D4005408D6
:100B6600CE00210031088531C62585312000D5000B
:100B760086316B26853120005506031DC42D0130B4
:100B86000800003008002000D000D201D301D101B6
:100B9600500851020318ED2D4E0886008701010802
:100BA6005207D20053080318530AD3000130CF006E
:100BB6004F08CE0701305302003003195202031CBE
:100BC600E82DFF30D2020030D33B0130CF004F0872
:100BD600D107CB2DD209D30952080800F200F4013F
:100BE600F501F301720873020318172E70088600C8
:100BF600870101087407F40075080318750AF500E3
:100C06000130F1007108F007013075020030031958
:100C16007402031C122EFF30F4020030F53B013043
:100C2600F1007108F307F52DF409F50974080800B9
:100C36002200A000210030083F392000D8005808C3
:100C46002200A10020082000CE000130CF00B230E3
:100C5600D8005808D0000830D1000030D2008631C4
:100C66004326863100302000CE00CF000C30D00065
:100C76000030D100B0308131412122002108080026
:100C860020005008D3005308D7004F08D6004E085E
:100C9600D5000130D1020030D23B510A0319520A65
:100CA600031908005708860087010108D300530876
:100CB600D4000130D3005308D707550886005608DC
:100CC6008700540881000130D5070030D63D4C2EF0
:100CD6002000230803196B2E2408A03E86008701F6
:100CE6000108CE004E08A20024083B3E86000130D3
:100CF60087000108CE004E08CF000130CE004E0816
:100D0600A407083024020318A4012100911201301F
:100D16002000A3022100911620004F080800720847
:100D2600F5007508F9007108F8007008F700013041
:100D3600F3020030F43B730A0319740A031908001E
:100D46007908860087010108F5007508F60001306C
:100D5600F5007508F9077708860078088700760891
:100D660081000130F7070030F83D9A2E0034003438
:100D7600F834FC3400340034F834FF3400340034E2
:100D8600F834FF3400340034F834FF3400340034CF
:100D9600F834FF340034FF34FF34FF3400340034B9
:100DA600F834FC3400340034F834FC3400340034B5
:100DB600F834FC342000CF005D080319DF2E210033
:100DC600111AEA2E20004F0823009A00FE2E111257
:100DD60020004F08CE002708A83E860087014E084F
:100DE60081000130CE004E08A707083027020318FD
:100DF600A7010130DD0221001116080020002D0395
:100E0600031D102F0130CD004D08AC0760082C02E1
:100E1600031C102F8F318F27873121006F03031D8D
:100E2600080001302000CD004D08AB072E082B022C
:100E3600031C0800833148230800083020005D02A7
:100E460003183A2F2608A83E8600870101082300CA
:100E56009A000130F00070082000A607083026022C
:100E66000318A6010130F0007008DD070800210014
:100E760011120800F401F501701C452F7208F407E1
:100E86007308F53D0130F235F30D890B462F01301D
:100E9600F136F00C890B4B2F70087104031D3F2FA0
:100EA6007508F1007408F00008002000D50051080C
:100EB600DC005008DB005508D4005408DE00530857
:100EC6002200B600200052082200B5008F31972775
:100ED60087318F31BF2787318F3193270800230051
:100EE6001908F000200025083B3E860001308700E7
:100EF600700881000130F0007008A507083025024F
:100F06000318A5010130F0007008A307080084311A
:100F1600C82487318F31B82787318F319B27873196
:100F26008731B127873187319F27873184318424E0
:100F360087318731D1270800F93020009B009A01BC
:100F4600911021009114FF302000CE000730CF0011
:100F56008F31B227063020009C000800240094013F
:100F660026309500013096009701FE309300103030
:100F76009200200091112100911508002000D00058
:100F86005008CF004F08E00000308F31AD27873181
:100F96008F3188272000AD01AD0A0800D03020002F
:100FA600D0008230D1003530D2000430D300143066
:100FB600873158270800FE0012001E000130FE028D
:100FC6000030FF3B7F087E0403190034DF2F6400E6
:100FD600800101310130FE020030FF3B7F087E04B4
:100FE60003190034EB2F87318A2787318B170B17AC
:0A0FF600823157228731FB2F0800DB
:101EFE0087317227080020002308080023009E1552
:101F0E00080020001C15080023001D121D160800D5
:101F1E002000AC01AD0108002100EF01EF0A08001E
:101F2E002000AC01AD01080016302100970008001A
:101F3E0055340A34FE34FF3423001D122100911251
:101F4E00080023001D162100911608002000CE0067
:101F5E004E089A00080020004F08DA004E08D900FB
:101F6E00080078302100990098012200960108009F
:101F7E0001302000CE000730CF008F31B22708008D
:101F8E0020004F082200B00020004E082200AF00B3
:101F9E00080020004F082200B40020004E08220046
:101FAE00B300080020004F082200B20020004E08A7
:101FBE002200B100080020004F082200B8002000C7
:101FCE004E082200B700080020004F082200BA0079
:101FDE0020004E082200B900080020009110590878
:101FEE005A04031908005A088A0059080A008F314A
:021FFE000800D9
:020000040001F9
:04000E00E4FFFFDE2E
:00000001FF
